{
  "contractName": "Election",
  "abi": [
    {
      "constant": true,
      "inputs": [],
      "name": "candidatesCount",
      "outputs": [
        {
          "name": "",
          "type": "uint256"
        }
      ],
      "payable": false,
      "stateMutability": "view",
      "type": "function"
    },
    {
      "constant": true,
      "inputs": [],
      "name": "chairperson",
      "outputs": [
        {
          "name": "",
          "type": "address"
        }
      ],
      "payable": false,
      "stateMutability": "view",
      "type": "function"
    },
    {
      "constant": true,
      "inputs": [
        {
          "name": "",
          "type": "uint256"
        }
      ],
      "name": "candidates",
      "outputs": [
        {
          "name": "id",
          "type": "uint256"
        },
        {
          "name": "name",
          "type": "string"
        },
        {
          "name": "registered",
          "type": "bool"
        },
        {
          "name": "voteCount",
          "type": "uint256"
        }
      ],
      "payable": false,
      "stateMutability": "view",
      "type": "function"
    },
    {
      "constant": true,
      "inputs": [],
      "name": "votingStarted",
      "outputs": [
        {
          "name": "",
          "type": "bool"
        }
      ],
      "payable": false,
      "stateMutability": "view",
      "type": "function"
    },
    {
      "constant": true,
      "inputs": [
        {
          "name": "",
          "type": "address"
        }
      ],
      "name": "voters",
      "outputs": [
        {
          "name": "registered",
          "type": "bool"
        },
        {
          "name": "voted",
          "type": "bool"
        }
      ],
      "payable": false,
      "stateMutability": "view",
      "type": "function"
    },
    {
      "inputs": [],
      "payable": false,
      "stateMutability": "nonpayable",
      "type": "constructor"
    },
    {
      "anonymous": false,
      "inputs": [
        {
          "indexed": false,
          "name": "status",
          "type": "bool"
        }
      ],
      "name": "VotingStatusEvent",
      "type": "event"
    },
    {
      "anonymous": false,
      "inputs": [
        {
          "indexed": true,
          "name": "candidateId",
          "type": "uint256"
        }
      ],
      "name": "CandidateAddedEvent",
      "type": "event"
    },
    {
      "anonymous": false,
      "inputs": [
        {
          "indexed": true,
          "name": "candidateId",
          "type": "uint256"
        }
      ],
      "name": "CandidateRemovedEvent",
      "type": "event"
    },
    {
      "anonymous": false,
      "inputs": [],
      "name": "VoterAddedEvent",
      "type": "event"
    },
    {
      "anonymous": false,
      "inputs": [
        {
          "indexed": true,
          "name": "voterAddress",
          "type": "address"
        },
        {
          "indexed": true,
          "name": "candidateId",
          "type": "uint256"
        }
      ],
      "name": "VotedEvent",
      "type": "event"
    },
    {
      "constant": false,
      "inputs": [
        {
          "name": "candidateName",
          "type": "string"
        }
      ],
      "name": "addCandidate",
      "outputs": [],
      "payable": false,
      "stateMutability": "nonpayable",
      "type": "function"
    },
    {
      "constant": false,
      "inputs": [
        {
          "name": "voterAddress",
          "type": "address"
        }
      ],
      "name": "giveRightToVote",
      "outputs": [],
      "payable": false,
      "stateMutability": "nonpayable",
      "type": "function"
    },
    {
      "constant": false,
      "inputs": [
        {
          "name": "candidateId",
          "type": "uint256"
        }
      ],
      "name": "vote",
      "outputs": [],
      "payable": false,
      "stateMutability": "nonpayable",
      "type": "function"
    },
    {
      "constant": false,
      "inputs": [],
      "name": "toggleVoting",
      "outputs": [],
      "payable": false,
      "stateMutability": "nonpayable",
      "type": "function"
    },
    {
      "constant": true,
      "inputs": [],
      "name": "winningProposal",
      "outputs": [
        {
          "name": "winningCandidate",
          "type": "string"
        }
      ],
      "payable": false,
      "stateMutability": "view",
      "type": "function"
    }
  ],
  "bytecode": "0x608060405234801561001057600080fd5b5033600160006101000a81548173ffffffffffffffffffffffffffffffffffffffff021916908373ffffffffffffffffffffffffffffffffffffffff160217905550610c1b806100616000396000f3006080604052600436106100a4576000357c0100000000000000000000000000000000000000000000000000000000900463ffffffff1680630121b93f146100a95780632d35a8a2146100d65780632e4176cf146101015780633477ee2e14610158578063462e91ec14610217578063609ff1bd1461028057806383d948b7146103105780639e7b8d611461033f578063a3ec138d14610382578063aae3bd47146103e8575b600080fd5b3480156100b557600080fd5b506100d4600480360381019080803590602001909291905050506103ff565b005b3480156100e257600080fd5b506100eb6105c5565b6040518082815260200191505060405180910390f35b34801561010d57600080fd5b506101166105cb565b604051808273ffffffffffffffffffffffffffffffffffffffff1673ffffffffffffffffffffffffffffffffffffffff16815260200191505060405180910390f35b34801561016457600080fd5b50610183600480360381019080803590602001909291905050506105f1565b604051808581526020018060200184151515158152602001838152602001828103825285818151815260200191508051906020019080838360005b838110156101d95780820151818401526020810190506101be565b50505050905090810190601f1680156102065780820380516001836020036101000a031916815260200191505b509550505050505060405180910390f35b34801561022357600080fd5b5061027e600480360381019080803590602001908201803590602001908080601f01602080910402602001604051908101604052809392919081815260200183838082843782019150505050505091929192905050506106c6565b005b34801561028c57600080fd5b50610295610811565b6040518080602001828103825283818151815260200191508051906020019080838360005b838110156102d55780820151818401526020810190506102ba565b50505050905090810190601f1680156103025780820380516001836020036101000a031916815260200191505b509250505060405180910390f35b34801561031c57600080fd5b50610325610925565b604051808215151515815260200191505060405180910390f35b34801561034b57600080fd5b50610380600480360381019080803573ffffffffffffffffffffffffffffffffffffffff169060200190929190505050610938565b005b34801561038e57600080fd5b506103c3600480360381019080803573ffffffffffffffffffffffffffffffffffffffff169060200190929190505050610a3a565b6040518083151515158152602001821515151581526020019250505060405180910390f35b3480156103f457600080fd5b506103fd610a78565b005b600160149054906101000a900460ff16151561041a57600080fd5b600260003373ffffffffffffffffffffffffffffffffffffffff1673ffffffffffffffffffffffffffffffffffffffff16815260200190815260200160002060000160009054906101000a900460ff1680156104c35750600260003373ffffffffffffffffffffffffffffffffffffffff1673ffffffffffffffffffffffffffffffffffffffff16815260200190815260200160002060000160019054906101000a900460ff16155b15156104ce57600080fd5b6003600082815260200190815260200160002060020160009054906101000a900460ff1615156104fd57600080fd5b6001600260003373ffffffffffffffffffffffffffffffffffffffff1673ffffffffffffffffffffffffffffffffffffffff16815260200190815260200160002060000160016101000a81548160ff0219169083151502179055506003600082815260200190815260200160002060030160008154809291906001019190505550803373ffffffffffffffffffffffffffffffffffffffff167f0902475a854b82199b4f5d6b81327ec4c4ec077ce0356a106ddc2748c5285ed360405160405180910390a350565b60005481565b600160009054906101000a900473ffffffffffffffffffffffffffffffffffffffff1681565b6003602052806000526040600020600091509050806000015490806001018054600181600116156101000203166002900480601f0160208091040260200160405190810160405280929190818152602001828054600181600116156101000203166002900480156106a35780601f10610678576101008083540402835291602001916106a3565b820191906000526020600020905b81548152906001019060200180831161068657829003601f168201915b5050505050908060020160009054906101000a900460ff16908060030154905084565b600160149054906101000a900460ff161515156106e257600080fd5b600160009054906101000a900473ffffffffffffffffffffffffffffffffffffffff1673ffffffffffffffffffffffffffffffffffffffff163373ffffffffffffffffffffffffffffffffffffffff1614151561073e57600080fd5b60008081548092919060010191905055506080604051908101604052806000548152602001828152602001600115158152602001600081525060036000805481526020019081526020016000206000820151816000015560208201518160010190805190602001906107b1929190610b4a565b5060408201518160020160006101000a81548160ff021916908315150217905550606082015181600301559050506000547f78ed148dc18880eff5fbebc8c251d66a3916e2f5845a77caee779e6fab6f377460405160405180910390a250565b606060008060009150600190505b600054811115156109205781600360008381526020019081526020016000206003015411156109135760036000828152602001908152602001600020600301549150600360008281526020019081526020016000206001018054600181600116156101000203166002900480601f01602080910402602001604051908101604052809291908181526020018280546001816001161561010002031660029004801561090b5780601f106108e05761010080835404028352916020019161090b565b820191906000526020600020905b8154815290600101906020018083116108ee57829003601f168201915b505050505092505b808060010191505061081f565b505090565b600160149054906101000a900460ff1681565b600160149054906101000a900460ff1615151561095457600080fd5b600260008273ffffffffffffffffffffffffffffffffffffffff1673ffffffffffffffffffffffffffffffffffffffff16815260200190815260200160002060000160009054906101000a900460ff161515156109b057600080fd5b6001600260008373ffffffffffffffffffffffffffffffffffffffff1673ffffffffffffffffffffffffffffffffffffffff16815260200190815260200160002060000160006101000a81548160ff0219169083151502179055507fb2c973b4e4a9cdae91d1c32b9915ded68f3b0a9b53ad82305a47d84feea8ad5d60405160405180910390a150565b60026020528060005260406000206000915090508060000160009054906101000a900460ff16908060000160019054906101000a900460ff16905082565b600160009054906101000a900473ffffffffffffffffffffffffffffffffffffffff1673ffffffffffffffffffffffffffffffffffffffff163373ffffffffffffffffffffffffffffffffffffffff16141515610ad457600080fd5b600160149054906101000a900460ff1615600160146101000a81548160ff0219169083151502179055507f9bb2820ece3da58ff5200b601e5432ed3950341382fdfb938c4624a637bf5f2b600160149054906101000a900460ff16604051808215151515815260200191505060405180910390a1565b828054600181600116156101000203166002900490600052602060002090601f016020900481019282601f10610b8b57805160ff1916838001178555610bb9565b82800160010185558215610bb9579182015b82811115610bb8578251825591602001919060010190610b9d565b5b509050610bc69190610bca565b5090565b610bec91905b80821115610be8576000816000905550600101610bd0565b5090565b905600a165627a7a72305820b409b0bbece4a30bf68f0a96c403411ac78b1e1c782b1f57ec6e25999b12c2720029",
  "source": "pragma solidity ^0.4.24;\n\ncontract Election {\n\n    struct Voter {\n        bool registered;\n        bool voted;\n    }\n\n    struct Candidate {\n        uint id;\n        string name;\n        bool registered;\n        uint voteCount;\n    }\n\n    uint public candidatesCount;\n    address public chairperson;\n    bool public votingStarted;\n\n    mapping(address => Voter) public voters;\n    mapping(uint => Candidate) public candidates;\n\n    event VotingStatusEvent (bool status);\n    event CandidateAddedEvent (uint indexed candidateId);\n    event CandidateRemovedEvent (uint indexed candidateId);\n    event VoterAddedEvent ();\n    event VotedEvent (address indexed voterAddress, uint indexed candidateId);\n\n    constructor() public {\n        chairperson = msg.sender;\n    }\n\n    function addCandidate(string candidateName) public {\n        require(!votingStarted);\n        require(msg.sender == chairperson);\n\n        candidatesCount++;\n        candidates[candidatesCount] = Candidate(candidatesCount, candidateName, true, 0);\n\n        emit CandidateAddedEvent(candidatesCount);\n    }\n\n    function giveRightToVote (address voterAddress) public {\n        require(!votingStarted);\n        require(!voters[voterAddress].registered);\n\n        voters[voterAddress].registered = true;\n        emit VoterAddedEvent();\n    }\n\n    function vote (uint candidateId) public {\n        require(votingStarted);\n        require(voters[msg.sender].registered && !voters[msg.sender].voted);\n        require(candidates[candidateId].registered);\n\n        voters[msg.sender].voted = true;\n        candidates[candidateId].voteCount++;\n\n        emit VotedEvent(msg.sender, candidateId);\n    }\n\n    function toggleVoting() public {\n        require(msg.sender == chairperson);\n\n        votingStarted = !votingStarted;\n\n        emit VotingStatusEvent(votingStarted);\n    }\n\n    function winningProposal() public view returns (string winningCandidate) {\n        uint256 winningVoteCount = 0;\n        for (uint i = 1; i <= candidatesCount; i++) {\n            if (candidates[i].voteCount > winningVoteCount) {\n                winningVoteCount = candidates[i].voteCount;\n                winningCandidate = candidates[i].name;\n            }\n        }\n    }\n}\n",
  "sourcePath": "/home/rails/shw/electiondemo/contracts/Election.sol",
  "compiler": {
    "name": "solc",
    "version": "0.4.24+commit.e67f0147.Emscripten.clang"
  },
  "schemaVersion": "2.0.1",
  "updatedAt": "2018-10-04T09:39:47.803Z"
}